{
  "contractName": "PaymentProcessor",
  "abi": [
    {
      "inputs": [
        {
          "internalType": "address payable",
          "name": "adminAddress",
          "type": "address"
        },
        {
          "internalType": "address payable",
          "name": "charityAddress",
          "type": "address"
        },
        {
          "internalType": "address payable",
          "name": "researchAddress",
          "type": "address"
        },
        {
          "internalType": "address payable",
          "name": "creativesAddress",
          "type": "address"
        },
        {
          "internalType": "address payable",
          "name": "operationsAddress",
          "type": "address"
        }
      ],
      "stateMutability": "nonpayable",
      "type": "constructor"
    },
    {
      "anonymous": false,
      "inputs": [
        {
          "indexed": false,
          "internalType": "address",
          "name": "payer",
          "type": "address"
        },
        {
          "indexed": false,
          "internalType": "uint256",
          "name": "amount",
          "type": "uint256"
        },
        {
          "indexed": false,
          "internalType": "uint256",
          "name": "paymentId",
          "type": "uint256"
        },
        {
          "indexed": false,
          "internalType": "uint256",
          "name": "date",
          "type": "uint256"
        }
      ],
      "name": "PaymentDone",
      "type": "event"
    },
    {
      "inputs": [],
      "name": "vine",
      "outputs": [
        {
          "internalType": "contract Vine",
          "name": "",
          "type": "address"
        }
      ],
      "stateMutability": "view",
      "type": "function",
      "constant": true
    },
    {
      "inputs": [
        {
          "internalType": "uint256",
          "name": "charityAmount",
          "type": "uint256"
        },
        {
          "internalType": "uint256",
          "name": "researchAmount",
          "type": "uint256"
        },
        {
          "internalType": "uint256",
          "name": "creativeAmount",
          "type": "uint256"
        },
        {
          "internalType": "uint256",
          "name": "operationsAmount",
          "type": "uint256"
        },
        {
          "internalType": "uint256",
          "name": "paymentId",
          "type": "uint256"
        }
      ],
      "name": "pay",
      "outputs": [],
      "stateMutability": "payable",
      "type": "function",
      "payable": true
    },
    {
      "inputs": [
        {
          "internalType": "contract Vine",
          "name": "vineAddress",
          "type": "address"
        }
      ],
      "name": "seedTheVine",
      "outputs": [],
      "stateMutability": "nonpayable",
      "type": "function"
    },
    {
      "inputs": [],
      "name": "getVineAddress",
      "outputs": [
        {
          "internalType": "contract Vine",
          "name": "",
          "type": "address"
        }
      ],
      "stateMutability": "nonpayable",
      "type": "function"
    }
  ],
  "bytecode": "0x608060405234801561001057600080fd5b50604051610be0380380610be0833981810160405281019061003291906101e3565b83600160006101000a81548173ffffffffffffffffffffffffffffffffffffffff021916908373ffffffffffffffffffffffffffffffffffffffff16021790555082600260006101000a81548173ffffffffffffffffffffffffffffffffffffffff021916908373ffffffffffffffffffffffffffffffffffffffff16021790555081600360006101000a81548173ffffffffffffffffffffffffffffffffffffffff021916908373ffffffffffffffffffffffffffffffffffffffff16021790555080600460006101000a81548173ffffffffffffffffffffffffffffffffffffffff021916908373ffffffffffffffffffffffffffffffffffffffff160217905550846000806101000a81548173ffffffffffffffffffffffffffffffffffffffff021916908373ffffffffffffffffffffffffffffffffffffffff160217905550505050505061025e565b600080fd5b600073ffffffffffffffffffffffffffffffffffffffff82169050919050565b60006101b082610185565b9050919050565b6101c0816101a5565b81146101cb57600080fd5b50565b6000815190506101dd816101b7565b92915050565b600080600080600060a086880312156101ff576101fe610180565b5b600061020d888289016101ce565b955050602061021e888289016101ce565b945050604061022f888289016101ce565b9350506060610240888289016101ce565b9250506080610251888289016101ce565b9150509295509295909350565b6109738061026d6000396000f3fe60806040526004361061003f5760003560e01c806328f3beb51461004457806334420e24146100605780638760d5451461008b578063e25cce0d146100b4575b600080fd5b61005e6004803603810190610059919061053d565b6100df565b005b34801561006c57600080fd5b506100756103e0565b6040516100829190610637565b60405180910390f35b34801561009757600080fd5b506100b260048036038101906100ad91906106a2565b610406565b005b3480156100c057600080fd5b506100c96104d8565b6040516100d69190610637565b60405180910390f35b6064828486886100ef91906106fe565b6100f991906106fe565b61010391906106fe565b1461010d57600080fd5b600160009054906101000a900473ffffffffffffffffffffffffffffffffffffffff1673ffffffffffffffffffffffffffffffffffffffff166108fc606487346101579190610754565b61016191906107dd565b9081150290604051600060405180830381858888f1935050505015801561018c573d6000803e3d6000fd5b50600260009054906101000a900473ffffffffffffffffffffffffffffffffffffffff1673ffffffffffffffffffffffffffffffffffffffff166108fc606486346101d79190610754565b6101e191906107dd565b9081150290604051600060405180830381858888f1935050505015801561020c573d6000803e3d6000fd5b50600360009054906101000a900473ffffffffffffffffffffffffffffffffffffffff1673ffffffffffffffffffffffffffffffffffffffff166108fc606485346102579190610754565b61026191906107dd565b9081150290604051600060405180830381858888f1935050505015801561028c573d6000803e3d6000fd5b50600460009054906101000a900473ffffffffffffffffffffffffffffffffffffffff1673ffffffffffffffffffffffffffffffffffffffff166108fc606484346102d79190610754565b6102e191906107dd565b9081150290604051600060405180830381858888f1935050505015801561030c573d6000803e3d6000fd5b50600560009054906101000a900473ffffffffffffffffffffffffffffffffffffffff1673ffffffffffffffffffffffffffffffffffffffff1663a5886e0133346040518363ffffffff1660e01b815260040161036a92919061082c565b600060405180830381600087803b15801561038457600080fd5b505af1158015610398573d6000803e3d6000fd5b505050507f78eaebe37a28490ff43ed0e95bdc47de1587156ac0069b652e1d2d9f42464e98333483426040516103d19493929190610855565b60405180910390a15050505050565b600560009054906101000a900473ffffffffffffffffffffffffffffffffffffffff1681565b60008054906101000a900473ffffffffffffffffffffffffffffffffffffffff1673ffffffffffffffffffffffffffffffffffffffff163373ffffffffffffffffffffffffffffffffffffffff1614610494576040517f08c379a000000000000000000000000000000000000000000000000000000000815260040161048b9061091d565b60405180910390fd5b80600560006101000a81548173ffffffffffffffffffffffffffffffffffffffff021916908373ffffffffffffffffffffffffffffffffffffffff16021790555050565b6000600560009054906101000a900473ffffffffffffffffffffffffffffffffffffffff16905090565b600080fd5b6000819050919050565b61051a81610507565b811461052557600080fd5b50565b60008135905061053781610511565b92915050565b600080600080600060a0868803121561055957610558610502565b5b600061056788828901610528565b955050602061057888828901610528565b945050604061058988828901610528565b935050606061059a88828901610528565b92505060806105ab88828901610528565b9150509295509295909350565b600073ffffffffffffffffffffffffffffffffffffffff82169050919050565b6000819050919050565b60006105fd6105f86105f3846105b8565b6105d8565b6105b8565b9050919050565b600061060f826105e2565b9050919050565b600061062182610604565b9050919050565b61063181610616565b82525050565b600060208201905061064c6000830184610628565b92915050565b600061065d826105b8565b9050919050565b600061066f82610652565b9050919050565b61067f81610664565b811461068a57600080fd5b50565b60008135905061069c81610676565b92915050565b6000602082840312156106b8576106b7610502565b5b60006106c68482850161068d565b91505092915050565b7f4e487b7100000000000000000000000000000000000000000000000000000000600052601160045260246000fd5b600061070982610507565b915061071483610507565b9250827fffffffffffffffffffffffffffffffffffffffffffffffffffffffffffffffff03821115610749576107486106cf565b5b828201905092915050565b600061075f82610507565b915061076a83610507565b9250817fffffffffffffffffffffffffffffffffffffffffffffffffffffffffffffffff04831182151516156107a3576107a26106cf565b5b828202905092915050565b7f4e487b7100000000000000000000000000000000000000000000000000000000600052601260045260246000fd5b60006107e882610507565b91506107f383610507565b925082610803576108026107ae565b5b828204905092915050565b61081781610652565b82525050565b61082681610507565b82525050565b6000604082019050610841600083018561080e565b61084e602083018461081d565b9392505050565b600060808201905061086a600083018761080e565b610877602083018661081d565b610884604083018561081d565b610891606083018461081d565b95945050505050565b600082825260208201905092915050565b7f4f6e6c79207468652041646d696e2063616e207570646174652074686973206660008201527f756e6374696f6e00000000000000000000000000000000000000000000000000602082015250565b600061090760278361089a565b9150610912826108ab565b604082019050919050565b60006020820190508181036000830152610936816108fa565b905091905056fea2646970667358221220c72940d3bd0df998ea5075ea2fa2709ddffa49db3e57ef528cdba1ad3dd46d5664736f6c634300080c0033",
  "immutableReferences": {},
  "source": "pragma solidity ^0.8.12;\n\nimport '@openzeppelin/contracts/token/ERC20/IERC20.sol';\nimport './Vine.sol';\n\ncontract PaymentProcessor {\n  address payable admin;\n  address payable charityTreasury;\n  address payable researchTreasury;\n  address payable creativeTreasury;\n  address payable operationsTreasury;\n\n  Vine public vine;\n\n  event PaymentDone(\n    address payer,\n    uint amount,\n    uint paymentId,\n    uint date\n  );\n\n  constructor(address payable adminAddress,\n              address payable charityAddress,\n              address payable researchAddress,\n              address payable creativesAddress,\n              address payable operationsAddress) public {\n    charityTreasury    = charityAddress;\n    researchTreasury   = researchAddress;\n    creativeTreasury = creativesAddress;\n    operationsTreasury = operationsAddress;\n    admin              = adminAddress;\n  }\n\n  // Pass in % of funds that should got to each treasury. (e.g. 20 for 20%). All percents should add up to 100.\n  // Fixed point numbers arent fully supported, hence the funky math.\n  function pay(uint charityAmount, uint researchAmount, uint creativeAmount, uint operationsAmount, uint paymentId) external payable {\n    require((charityAmount + researchAmount + creativeAmount + operationsAmount) == 100);\n\n    charityTreasury.transfer((msg.value*(charityAmount)/100));\n    researchTreasury.transfer((msg.value*(researchAmount)/100));\n    creativeTreasury.transfer((msg.value*(creativeAmount)/100));\n    operationsTreasury.transfer((msg.value*(operationsAmount)/100));\n\n    vine.customerPaid(msg.sender, msg.value);\n    emit PaymentDone(msg.sender, msg.value, paymentId, block.timestamp);\n  }\n\n  function seedTheVine(Vine vineAddress) public {\n    require(msg.sender == admin, \"Only the Admin can update this function\");\n\n    vine = vineAddress;\n  }\n\n  function getVineAddress() public returns (Vine){\n    return vine;\n  }\n}\n",
  "sourcePath": "/Users/dilloncortez/workspace/rainforest-apps/rainforest/contracts/PaymentProcessor.sol",
  "compiler": {
    "name": "solc",
    "version": "0.8.12+commit.f00d7308.Emscripten.clang"
  },
  "schemaVersion": "3.4.5",
  "updatedAt": "2022-05-06T22:32:45.970Z",
  "networkType": "ethereum",
  "devdoc": {
    "kind": "dev",
    "methods": {},
    "version": 1
  },
  "userdoc": {
    "kind": "user",
    "methods": {},
    "version": 1
  }
}